{
	"_format": "hh-sol-artifact-1",
	"contractName": "Btp",
	"sourceName": "contracts/Btp.sol",
	"abi": [
		{
			"inputs": [
				{
					"internalType": "uint256",
					"name": "nodeId",
					"type": "uint256"
				}
			],
			"name": "NodeNotAvailable",
			"type": "error"
		},
		{
			"inputs": [
				{
					"internalType": "uint256",
					"name": "nodeId",
					"type": "uint256"
				}
			],
			"name": "NodeNotFound",
			"type": "error"
		},
		{
			"inputs": [
				{
					"internalType": "uint256",
					"name": "nodeId",
					"type": "uint256"
				}
			],
			"name": "NodeNotOwned",
			"type": "error"
		},
		{
			"anonymous": false,
			"inputs": [
				{
					"indexed": false,
					"internalType": "address",
					"name": "host",
					"type": "address"
				},
				{
					"indexed": false,
					"internalType": "uint256",
					"name": "nodeId",
					"type": "uint256"
				},
				{
					"indexed": false,
					"internalType": "string",
					"name": "provider",
					"type": "string"
				},
				{
					"indexed": false,
					"internalType": "string",
					"name": "api",
					"type": "string"
				},
				{
					"indexed": false,
					"internalType": "string",
					"name": "key",
					"type": "string"
				}
			],
			"name": "NodeCreated",
			"type": "event"
		},
		{
			"anonymous": false,
			"inputs": [
				{
					"indexed": false,
					"internalType": "address",
					"name": "host",
					"type": "address"
				},
				{
					"indexed": false,
					"internalType": "uint256",
					"name": "nodeId",
					"type": "uint256"
				}
			],
			"name": "NodeDeleted",
			"type": "event"
		},
		{
			"anonymous": false,
			"inputs": [
				{
					"indexed": false,
					"internalType": "address",
					"name": "host",
					"type": "address"
				},
				{
					"indexed": false,
					"internalType": "uint256",
					"name": "nodeId",
					"type": "uint256"
				},
				{
					"indexed": false,
					"internalType": "string",
					"name": "provider",
					"type": "string"
				},
				{
					"indexed": false,
					"internalType": "string",
					"name": "api",
					"type": "string"
				},
				{
					"indexed": false,
					"internalType": "string",
					"name": "key",
					"type": "string"
				}
			],
			"name": "NodeUpdated",
			"type": "event"
		},
		{
			"inputs": [
				{
					"internalType": "string",
					"name": "provider",
					"type": "string"
				},
				{
					"internalType": "string",
					"name": "api",
					"type": "string"
				},
				{
					"internalType": "string",
					"name": "key",
					"type": "string"
				}
			],
			"name": "createNode",
			"outputs": [],
			"stateMutability": "nonpayable",
			"type": "function"
		},
		{
			"inputs": [
				{
					"internalType": "uint256",
					"name": "nodeId",
					"type": "uint256"
				}
			],
			"name": "deleteNode",
			"outputs": [],
			"stateMutability": "nonpayable",
			"type": "function"
		},
		{
			"inputs": [
				{
					"internalType": "uint256",
					"name": "nodeId",
					"type": "uint256"
				}
			],
			"name": "getNodeById",
			"outputs": [
				{
					"components": [
						{
							"internalType": "uint256",
							"name": "nodeId",
							"type": "uint256"
						},
						{
							"internalType": "string",
							"name": "provider",
							"type": "string"
						},
						{
							"internalType": "string",
							"name": "api",
							"type": "string"
						},
						{
							"internalType": "string",
							"name": "key",
							"type": "string"
						},
						{
							"internalType": "address",
							"name": "host",
							"type": "address"
						},
						{
							"internalType": "bool",
							"name": "isAvailable",
							"type": "bool"
						}
					],
					"internalType": "struct Btp.Node",
					"name": "",
					"type": "tuple"
				}
			],
			"stateMutability": "view",
			"type": "function"
		},
		{
			"inputs": [
				{
					"internalType": "uint256[]",
					"name": "ids",
					"type": "uint256[]"
				}
			],
			"name": "getNodesByIds",
			"outputs": [
				{
					"components": [
						{
							"internalType": "uint256",
							"name": "nodeId",
							"type": "uint256"
						},
						{
							"internalType": "string",
							"name": "provider",
							"type": "string"
						},
						{
							"internalType": "string",
							"name": "api",
							"type": "string"
						},
						{
							"internalType": "string",
							"name": "key",
							"type": "string"
						},
						{
							"internalType": "address",
							"name": "host",
							"type": "address"
						},
						{
							"internalType": "bool",
							"name": "isAvailable",
							"type": "bool"
						}
					],
					"internalType": "struct Btp.Node[]",
					"name": "",
					"type": "tuple[]"
				}
			],
			"stateMutability": "view",
			"type": "function"
		},
		{
			"inputs": [
				{
					"internalType": "uint256",
					"name": "nodeId",
					"type": "uint256"
				},
				{
					"internalType": "string",
					"name": "provider",
					"type": "string"
				},
				{
					"internalType": "string",
					"name": "api",
					"type": "string"
				},
				{
					"internalType": "string",
					"name": "key",
					"type": "string"
				}
			],
			"name": "updateNode",
			"outputs": [],
			"stateMutability": "nonpayable",
			"type": "function"
		}
	],
	"bytecode": "0x60806040526000805534801561001457600080fd5b50611858806100246000396000f3fe608060405234801561001057600080fd5b50600436106100575760003560e01c80630e6a84961461005c57806341d2a2561461008c57806348f74d3e146100a85780635a5b967b146100c4578063798e0d83146100e0575b600080fd5b61007660048036038101906100719190610cea565b610110565b6040516100839190610ea9565b60405180910390f35b6100a660048036038101906100a19190610cea565b6103bd565b005b6100c260048036038101906100bd9190611000565b610578565b005b6100de60048036038101906100d991906110a7565b6106ed565b005b6100fa60048036038101906100f591906111c2565b6108eb565b6040516101079190611368565b60405180910390f35b610118610c52565b6000600160008481526020019081526020016000206040518060c001604052908160008201548152602001600182018054610152906113b9565b80601f016020809104026020016040519081016040528092919081815260200182805461017e906113b9565b80156101cb5780601f106101a0576101008083540402835291602001916101cb565b820191906000526020600020905b8154815290600101906020018083116101ae57829003601f168201915b505050505081526020016002820180546101e4906113b9565b80601f0160208091040260200160405190810160405280929190818152602001828054610210906113b9565b801561025d5780601f106102325761010080835404028352916020019161025d565b820191906000526020600020905b81548152906001019060200180831161024057829003601f168201915b50505050508152602001600382018054610276906113b9565b80601f01602080910402602001604051908101604052809291908181526020018280546102a2906113b9565b80156102ef5780601f106102c4576101008083540402835291602001916102ef565b820191906000526020600020905b8154815290600101906020018083116102d257829003601f168201915b505050505081526020016004820160009054906101000a900473ffffffffffffffffffffffffffffffffffffffff1673ffffffffffffffffffffffffffffffffffffffff1673ffffffffffffffffffffffffffffffffffffffff1681526020016004820160149054906101000a900460ff161515151581525050905060008160000151036103b457826040517fed62d2290000000000000000000000000000000000000000000000000000000081526004016103ab91906113f9565b60405180910390fd5b80915050919050565b806000600160008381526020019081526020016000209050600081600001540361041e57816040517fed62d22900000000000000000000000000000000000000000000000000000000815260040161041591906113f9565b60405180910390fd5b8060040160149054906101000a900460ff1661047157816040517f5756e18d00000000000000000000000000000000000000000000000000000000815260040161046891906113f9565b60405180910390fd5b3373ffffffffffffffffffffffffffffffffffffffff168160040160009054906101000a900473ffffffffffffffffffffffffffffffffffffffff1673ffffffffffffffffffffffffffffffffffffffff161461050557816040517fbd0474ea0000000000000000000000000000000000000000000000000000000081526004016104fc91906113f9565b60405180910390fd5b600060016000858152602001908152602001600020905060008160040160146101000a81548160ff0219169083151502179055507f93864916fd307ae830b92978d446f76084b5ba2be24daac649f170d79bf341e1338560405161056a929190611423565b60405180910390a150505050565b60008081548092919061058a9061147b565b919050555060006040518060c0016040528060005481526020018581526020018481526020018381526020013373ffffffffffffffffffffffffffffffffffffffff16815260200160011515815250905080600160008054815260200190815260200160002060008201518160000155602082015181600101908161060f919061166f565b506040820151816002019081610625919061166f565b50606082015181600301908161063b919061166f565b5060808201518160040160006101000a81548173ffffffffffffffffffffffffffffffffffffffff021916908373ffffffffffffffffffffffffffffffffffffffff16021790555060a08201518160040160146101000a81548160ff0219169083151502179055509050507f5a828ca385374d0b656850d0874786f43e6d33f5b6dc090084e72083b621c920336000548686866040516106df95949392919061178b565b60405180910390a150505050565b836000600160008381526020019081526020016000209050600081600001540361074e57816040517fed62d22900000000000000000000000000000000000000000000000000000000815260040161074591906113f9565b60405180910390fd5b8060040160149054906101000a900460ff166107a157816040517f5756e18d00000000000000000000000000000000000000000000000000000000815260040161079891906113f9565b60405180910390fd5b3373ffffffffffffffffffffffffffffffffffffffff168160040160009054906101000a900473ffffffffffffffffffffffffffffffffffffffff1673ffffffffffffffffffffffffffffffffffffffff161461083557816040517fbd0474ea00000000000000000000000000000000000000000000000000000000815260040161082c91906113f9565b60405180910390fd5b60006001600088815260200190815260200160002090506000865111156108695785816001019081610867919061166f565b505b6000855111156108865784816002019081610884919061166f565b505b6000845111156108a357838160030190816108a1919061166f565b505b7f25ae93b087868b4346c41e63708468b79ff1d02563f9681aed9fed6657e05e6333888888886040516108da95949392919061178b565b60405180910390a150505050505050565b6060600083839050905060008167ffffffffffffffff81111561091157610910610ed5565b5b60405190808252806020026020018201604052801561094a57816020015b610937610c52565b81526020019060019003908161092f5790505b50905060005b82811015610c4657600086868381811061096d5761096c6117f3565b5b9050602002013590506000600160008381526020019081526020016000206040518060c0016040529081600082015481526020016001820180546109b0906113b9565b80601f01602080910402602001604051908101604052809291908181526020018280546109dc906113b9565b8015610a295780601f106109fe57610100808354040283529160200191610a29565b820191906000526020600020905b815481529060010190602001808311610a0c57829003601f168201915b50505050508152602001600282018054610a42906113b9565b80601f0160208091040260200160405190810160405280929190818152602001828054610a6e906113b9565b8015610abb5780601f10610a9057610100808354040283529160200191610abb565b820191906000526020600020905b815481529060010190602001808311610a9e57829003601f168201915b50505050508152602001600382018054610ad4906113b9565b80601f0160208091040260200160405190810160405280929190818152602001828054610b00906113b9565b8015610b4d5780601f10610b2257610100808354040283529160200191610b4d565b820191906000526020600020905b815481529060010190602001808311610b3057829003601f168201915b505050505081526020016004820160009054906101000a900473ffffffffffffffffffffffffffffffffffffffff1673ffffffffffffffffffffffffffffffffffffffff1673ffffffffffffffffffffffffffffffffffffffff1681526020016004820160149054906101000a900460ff16151515158152505090506000816000015103610c1257816040517fed62d229000000000000000000000000000000000000000000000000000000008152600401610c0991906113f9565b60405180910390fd5b80848481518110610c2657610c256117f3565b5b602002602001018190525050508080610c3e9061147b565b915050610950565b50809250505092915050565b6040518060c0016040528060008152602001606081526020016060815260200160608152602001600073ffffffffffffffffffffffffffffffffffffffff1681526020016000151581525090565b6000604051905090565b600080fd5b600080fd5b6000819050919050565b610cc781610cb4565b8114610cd257600080fd5b50565b600081359050610ce481610cbe565b92915050565b600060208284031215610d0057610cff610caa565b5b6000610d0e84828501610cd5565b91505092915050565b610d2081610cb4565b82525050565b600081519050919050565b600082825260208201905092915050565b60005b83811015610d60578082015181840152602081019050610d45565b60008484015250505050565b6000601f19601f8301169050919050565b6000610d8882610d26565b610d928185610d31565b9350610da2818560208601610d42565b610dab81610d6c565b840191505092915050565b600073ffffffffffffffffffffffffffffffffffffffff82169050919050565b6000610de182610db6565b9050919050565b610df181610dd6565b82525050565b60008115159050919050565b610e0c81610df7565b82525050565b600060c083016000830151610e2a6000860182610d17565b5060208301518482036020860152610e428282610d7d565b91505060408301518482036040860152610e5c8282610d7d565b91505060608301518482036060860152610e768282610d7d565b9150506080830151610e8b6080860182610de8565b5060a0830151610e9e60a0860182610e03565b508091505092915050565b60006020820190508181036000830152610ec38184610e12565b905092915050565b600080fd5b600080fd5b7f4e487b7100000000000000000000000000000000000000000000000000000000600052604160045260246000fd5b610f0d82610d6c565b810181811067ffffffffffffffff82111715610f2c57610f2b610ed5565b5b80604052505050565b6000610f3f610ca0565b9050610f4b8282610f04565b919050565b600067ffffffffffffffff821115610f6b57610f6a610ed5565b5b610f7482610d6c565b9050602081019050919050565b82818337600083830152505050565b6000610fa3610f9e84610f50565b610f35565b905082815260208101848484011115610fbf57610fbe610ed0565b5b610fca848285610f81565b509392505050565b600082601f830112610fe757610fe6610ecb565b5b8135610ff7848260208601610f90565b91505092915050565b60008060006060848603121561101957611018610caa565b5b600084013567ffffffffffffffff81111561103757611036610caf565b5b61104386828701610fd2565b935050602084013567ffffffffffffffff81111561106457611063610caf565b5b61107086828701610fd2565b925050604084013567ffffffffffffffff81111561109157611090610caf565b5b61109d86828701610fd2565b9150509250925092565b600080600080608085870312156110c1576110c0610caa565b5b60006110cf87828801610cd5565b945050602085013567ffffffffffffffff8111156110f0576110ef610caf565b5b6110fc87828801610fd2565b935050604085013567ffffffffffffffff81111561111d5761111c610caf565b5b61112987828801610fd2565b925050606085013567ffffffffffffffff81111561114a57611149610caf565b5b61115687828801610fd2565b91505092959194509250565b600080fd5b600080fd5b60008083601f84011261118257611181610ecb565b5b8235905067ffffffffffffffff81111561119f5761119e611162565b5b6020830191508360208202830111156111bb576111ba611167565b5b9250929050565b600080602083850312156111d9576111d8610caa565b5b600083013567ffffffffffffffff8111156111f7576111f6610caf565b5b6112038582860161116c565b92509250509250929050565b600081519050919050565b600082825260208201905092915050565b6000819050602082019050919050565b600060c0830160008301516112536000860182610d17565b506020830151848203602086015261126b8282610d7d565b915050604083015184820360408601526112858282610d7d565b9150506060830151848203606086015261129f8282610d7d565b91505060808301516112b46080860182610de8565b5060a08301516112c760a0860182610e03565b508091505092915050565b60006112de838361123b565b905092915050565b6000602082019050919050565b60006112fe8261120f565b611308818561121a565b93508360208202850161131a8561122b565b8060005b85811015611356578484038952815161133785826112d2565b9450611342836112e6565b925060208a0199505060018101905061131e565b50829750879550505050505092915050565b6000602082019050818103600083015261138281846112f3565b905092915050565b7f4e487b7100000000000000000000000000000000000000000000000000000000600052602260045260246000fd5b600060028204905060018216806113d157607f821691505b6020821081036113e4576113e361138a565b5b50919050565b6113f381610cb4565b82525050565b600060208201905061140e60008301846113ea565b92915050565b61141d81610dd6565b82525050565b60006040820190506114386000830185611414565b61144560208301846113ea565b9392505050565b7f4e487b7100000000000000000000000000000000000000000000000000000000600052601160045260246000fd5b600061148682610cb4565b91507fffffffffffffffffffffffffffffffffffffffffffffffffffffffffffffffff82036114b8576114b761144c565b5b600182019050919050565b60008190508160005260206000209050919050565b60006020601f8301049050919050565b600082821b905092915050565b6000600883026115257fffffffffffffffffffffffffffffffffffffffffffffffffffffffffffffffff826114e8565b61152f86836114e8565b95508019841693508086168417925050509392505050565b6000819050919050565b600061156c61156761156284610cb4565b611547565b610cb4565b9050919050565b6000819050919050565b61158683611551565b61159a61159282611573565b8484546114f5565b825550505050565b600090565b6115af6115a2565b6115ba81848461157d565b505050565b5b818110156115de576115d36000826115a7565b6001810190506115c0565b5050565b601f821115611623576115f4816114c3565b6115fd846114d8565b8101602085101561160c578190505b611620611618856114d8565b8301826115bf565b50505b505050565b600082821c905092915050565b600061164660001984600802611628565b1980831691505092915050565b600061165f8383611635565b9150826002028217905092915050565b61167882610d26565b67ffffffffffffffff81111561169157611690610ed5565b5b61169b82546113b9565b6116a68282856115e2565b600060209050601f8311600181146116d957600084156116c7578287015190505b6116d18582611653565b865550611739565b601f1984166116e7866114c3565b60005b8281101561170f578489015182556001820191506020850194506020810190506116ea565b8683101561172c5784890151611728601f891682611635565b8355505b6001600288020188555050505b505050505050565b600082825260208201905092915050565b600061175d82610d26565b6117678185611741565b9350611777818560208601610d42565b61178081610d6c565b840191505092915050565b600060a0820190506117a06000830188611414565b6117ad60208301876113ea565b81810360408301526117bf8186611752565b905081810360608301526117d38185611752565b905081810360808301526117e78184611752565b90509695505050505050565b7f4e487b7100000000000000000000000000000000000000000000000000000000600052603260045260246000fdfea2646970667358221220d9f4fefb5f2818db63902245599bec429f3da7c604a7e3d8b0080c5c33b7711b64736f6c63430008130033",
	"linkReferences": {},
	"deployedLinkReferences": {}
}