{
	"_format": "hh-sol-artifact-1",
	"contractName": "Btp",
	"sourceName": "contracts/Btp.sol",
	"abi": [
		{
			"inputs": [
				{
					"internalType": "uint256",
					"name": "nodeId",
					"type": "uint256"
				}
			],
			"name": "NodeNotAvailable",
			"type": "error"
		},
		{
			"inputs": [
				{
					"internalType": "uint256",
					"name": "nodeId",
					"type": "uint256"
				}
			],
			"name": "NodeNotFound",
			"type": "error"
		},
		{
			"inputs": [
				{
					"internalType": "uint256",
					"name": "nodeId",
					"type": "uint256"
				}
			],
			"name": "NodeNotOwned",
			"type": "error"
		},
		{
			"anonymous": false,
			"inputs": [
				{
					"indexed": false,
					"internalType": "address",
					"name": "host",
					"type": "address"
				},
				{
					"indexed": false,
					"internalType": "uint256",
					"name": "nodeId",
					"type": "uint256"
				},
				{
					"indexed": false,
					"internalType": "string",
					"name": "provider",
					"type": "string"
				},
				{
					"indexed": false,
					"internalType": "string",
					"name": "api",
					"type": "string"
				},
				{
					"indexed": false,
					"internalType": "string",
					"name": "key",
					"type": "string"
				}
			],
			"name": "NodeCreated",
			"type": "event"
		},
		{
			"anonymous": false,
			"inputs": [
				{
					"indexed": false,
					"internalType": "address",
					"name": "host",
					"type": "address"
				},
				{
					"indexed": false,
					"internalType": "uint256",
					"name": "nodeId",
					"type": "uint256"
				}
			],
			"name": "NodeDeleted",
			"type": "event"
		},
		{
			"anonymous": false,
			"inputs": [
				{
					"indexed": false,
					"internalType": "address",
					"name": "host",
					"type": "address"
				},
				{
					"indexed": false,
					"internalType": "uint256",
					"name": "nodeId",
					"type": "uint256"
				},
				{
					"indexed": false,
					"internalType": "string",
					"name": "provider",
					"type": "string"
				},
				{
					"indexed": false,
					"internalType": "string",
					"name": "api",
					"type": "string"
				},
				{
					"indexed": false,
					"internalType": "string",
					"name": "key",
					"type": "string"
				}
			],
			"name": "NodeUpdated",
			"type": "event"
		},
		{
			"inputs": [
				{
					"internalType": "string",
					"name": "provider",
					"type": "string"
				},
				{
					"internalType": "string",
					"name": "api",
					"type": "string"
				},
				{
					"internalType": "string",
					"name": "key",
					"type": "string"
				}
			],
			"name": "createNode",
			"outputs": [],
			"stateMutability": "nonpayable",
			"type": "function"
		},
		{
			"inputs": [
				{
					"internalType": "uint256",
					"name": "nodeId",
					"type": "uint256"
				}
			],
			"name": "deleteNode",
			"outputs": [],
			"stateMutability": "nonpayable",
			"type": "function"
		},
		{
			"inputs": [
				{
					"internalType": "uint256",
					"name": "nodeId",
					"type": "uint256"
				}
			],
			"name": "getNodeById",
			"outputs": [
				{
					"components": [
						{
							"internalType": "uint256",
							"name": "nodeId",
							"type": "uint256"
						},
						{
							"internalType": "string",
							"name": "provider",
							"type": "string"
						},
						{
							"internalType": "string",
							"name": "api",
							"type": "string"
						},
						{
							"internalType": "string",
							"name": "key",
							"type": "string"
						},
						{
							"internalType": "address",
							"name": "host",
							"type": "address"
						},
						{
							"internalType": "bool",
							"name": "isAvailable",
							"type": "bool"
						}
					],
					"internalType": "struct Btp.Node",
					"name": "",
					"type": "tuple"
				}
			],
			"stateMutability": "view",
			"type": "function"
		},
		{
			"inputs": [
				{
					"internalType": "uint256[]",
					"name": "ids",
					"type": "uint256[]"
				}
			],
			"name": "getNodesByIds",
			"outputs": [
				{
					"components": [
						{
							"internalType": "uint256",
							"name": "nodeId",
							"type": "uint256"
						},
						{
							"internalType": "string",
							"name": "provider",
							"type": "string"
						},
						{
							"internalType": "string",
							"name": "api",
							"type": "string"
						},
						{
							"internalType": "string",
							"name": "key",
							"type": "string"
						},
						{
							"internalType": "address",
							"name": "host",
							"type": "address"
						},
						{
							"internalType": "bool",
							"name": "isAvailable",
							"type": "bool"
						}
					],
					"internalType": "struct Btp.Node[]",
					"name": "",
					"type": "tuple[]"
				}
			],
			"stateMutability": "view",
			"type": "function"
		},
		{
			"inputs": [
				{
					"internalType": "uint256",
					"name": "nodeId",
					"type": "uint256"
				},
				{
					"internalType": "string",
					"name": "provider",
					"type": "string"
				},
				{
					"internalType": "string",
					"name": "api",
					"type": "string"
				},
				{
					"internalType": "string",
					"name": "key",
					"type": "string"
				}
			],
			"name": "updateNode",
			"outputs": [],
			"stateMutability": "nonpayable",
			"type": "function"
		}
	],
	"bytecode": "0x60806040526000805534801561001457600080fd5b50611852806100246000396000f3fe608060405234801561001057600080fd5b50600436106100575760003560e01c80630e6a84961461005c57806341d2a2561461008c57806348f74d3e146100a85780635a5b967b146100c4578063798e0d83146100e0575b600080fd5b61007660048036038101906100719190610ce4565b610110565b6040516100839190610ea3565b60405180910390f35b6100a660048036038101906100a19190610ce4565b6103bd565b005b6100c260048036038101906100bd9190610ffa565b610572565b005b6100de60048036038101906100d991906110a1565b6106e7565b005b6100fa60048036038101906100f591906111bc565b6108e5565b6040516101079190611362565b60405180910390f35b610118610c4c565b6000600160008481526020019081526020016000206040518060c001604052908160008201548152602001600182018054610152906113b3565b80601f016020809104026020016040519081016040528092919081815260200182805461017e906113b3565b80156101cb5780601f106101a0576101008083540402835291602001916101cb565b820191906000526020600020905b8154815290600101906020018083116101ae57829003601f168201915b505050505081526020016002820180546101e4906113b3565b80601f0160208091040260200160405190810160405280929190818152602001828054610210906113b3565b801561025d5780601f106102325761010080835404028352916020019161025d565b820191906000526020600020905b81548152906001019060200180831161024057829003601f168201915b50505050508152602001600382018054610276906113b3565b80601f01602080910402602001604051908101604052809291908181526020018280546102a2906113b3565b80156102ef5780601f106102c4576101008083540402835291602001916102ef565b820191906000526020600020905b8154815290600101906020018083116102d257829003601f168201915b505050505081526020016004820160009054906101000a900473ffffffffffffffffffffffffffffffffffffffff1673ffffffffffffffffffffffffffffffffffffffff1673ffffffffffffffffffffffffffffffffffffffff1681526020016004820160149054906101000a900460ff161515151581525050905060008160000151036103b457826040517fed62d2290000000000000000000000000000000000000000000000000000000081526004016103ab91906113f3565b60405180910390fd5b80915050919050565b806000600160008381526020019081526020016000209050600081600001540361041e57816040517fed62d22900000000000000000000000000000000000000000000000000000000815260040161041591906113f3565b60405180910390fd5b8060040160149054906101000a900460ff1661047157816040517f5756e18d00000000000000000000000000000000000000000000000000000000815260040161046891906113f3565b60405180910390fd5b3373ffffffffffffffffffffffffffffffffffffffff168160040160009054906101000a900473ffffffffffffffffffffffffffffffffffffffff1673ffffffffffffffffffffffffffffffffffffffff161461050557816040517fbd0474ea0000000000000000000000000000000000000000000000000000000081526004016104fc91906113f3565b60405180910390fd5b60006001600085815260200190815260200160002060040160146101000a81548160ff0219169083151502179055507f93864916fd307ae830b92978d446f76084b5ba2be24daac649f170d79bf341e1338460405161056592919061141d565b60405180910390a1505050565b60008081548092919061058490611475565b919050555060006040518060c0016040528060005481526020018581526020018481526020018381526020013373ffffffffffffffffffffffffffffffffffffffff1681526020016001151581525090508060016000805481526020019081526020016000206000820151816000015560208201518160010190816106099190611669565b50604082015181600201908161061f9190611669565b5060608201518160030190816106359190611669565b5060808201518160040160006101000a81548173ffffffffffffffffffffffffffffffffffffffff021916908373ffffffffffffffffffffffffffffffffffffffff16021790555060a08201518160040160146101000a81548160ff0219169083151502179055509050507f5a828ca385374d0b656850d0874786f43e6d33f5b6dc090084e72083b621c920336000548686866040516106d9959493929190611785565b60405180910390a150505050565b836000600160008381526020019081526020016000209050600081600001540361074857816040517fed62d22900000000000000000000000000000000000000000000000000000000815260040161073f91906113f3565b60405180910390fd5b8060040160149054906101000a900460ff1661079b57816040517f5756e18d00000000000000000000000000000000000000000000000000000000815260040161079291906113f3565b60405180910390fd5b3373ffffffffffffffffffffffffffffffffffffffff168160040160009054906101000a900473ffffffffffffffffffffffffffffffffffffffff1673ffffffffffffffffffffffffffffffffffffffff161461082f57816040517fbd0474ea00000000000000000000000000000000000000000000000000000000815260040161082691906113f3565b60405180910390fd5b600060016000888152602001908152602001600020905060008651111561086357858160010190816108619190611669565b505b600085511115610880578481600201908161087e9190611669565b505b60008451111561089d578381600301908161089b9190611669565b505b7f25ae93b087868b4346c41e63708468b79ff1d02563f9681aed9fed6657e05e6333888888886040516108d4959493929190611785565b60405180910390a150505050505050565b6060600083839050905060008167ffffffffffffffff81111561090b5761090a610ecf565b5b60405190808252806020026020018201604052801561094457816020015b610931610c4c565b8152602001906001900390816109295790505b50905060005b82811015610c40576000868683818110610967576109666117ed565b5b9050602002013590506000600160008381526020019081526020016000206040518060c0016040529081600082015481526020016001820180546109aa906113b3565b80601f01602080910402602001604051908101604052809291908181526020018280546109d6906113b3565b8015610a235780601f106109f857610100808354040283529160200191610a23565b820191906000526020600020905b815481529060010190602001808311610a0657829003601f168201915b50505050508152602001600282018054610a3c906113b3565b80601f0160208091040260200160405190810160405280929190818152602001828054610a68906113b3565b8015610ab55780601f10610a8a57610100808354040283529160200191610ab5565b820191906000526020600020905b815481529060010190602001808311610a9857829003601f168201915b50505050508152602001600382018054610ace906113b3565b80601f0160208091040260200160405190810160405280929190818152602001828054610afa906113b3565b8015610b475780601f10610b1c57610100808354040283529160200191610b47565b820191906000526020600020905b815481529060010190602001808311610b2a57829003601f168201915b505050505081526020016004820160009054906101000a900473ffffffffffffffffffffffffffffffffffffffff1673ffffffffffffffffffffffffffffffffffffffff1673ffffffffffffffffffffffffffffffffffffffff1681526020016004820160149054906101000a900460ff16151515158152505090506000816000015103610c0c57816040517fed62d229000000000000000000000000000000000000000000000000000000008152600401610c0391906113f3565b60405180910390fd5b80848481518110610c2057610c1f6117ed565b5b602002602001018190525050508080610c3890611475565b91505061094a565b50809250505092915050565b6040518060c0016040528060008152602001606081526020016060815260200160608152602001600073ffffffffffffffffffffffffffffffffffffffff1681526020016000151581525090565b6000604051905090565b600080fd5b600080fd5b6000819050919050565b610cc181610cae565b8114610ccc57600080fd5b50565b600081359050610cde81610cb8565b92915050565b600060208284031215610cfa57610cf9610ca4565b5b6000610d0884828501610ccf565b91505092915050565b610d1a81610cae565b82525050565b600081519050919050565b600082825260208201905092915050565b60005b83811015610d5a578082015181840152602081019050610d3f565b60008484015250505050565b6000601f19601f8301169050919050565b6000610d8282610d20565b610d8c8185610d2b565b9350610d9c818560208601610d3c565b610da581610d66565b840191505092915050565b600073ffffffffffffffffffffffffffffffffffffffff82169050919050565b6000610ddb82610db0565b9050919050565b610deb81610dd0565b82525050565b60008115159050919050565b610e0681610df1565b82525050565b600060c083016000830151610e246000860182610d11565b5060208301518482036020860152610e3c8282610d77565b91505060408301518482036040860152610e568282610d77565b91505060608301518482036060860152610e708282610d77565b9150506080830151610e856080860182610de2565b5060a0830151610e9860a0860182610dfd565b508091505092915050565b60006020820190508181036000830152610ebd8184610e0c565b905092915050565b600080fd5b600080fd5b7f4e487b7100000000000000000000000000000000000000000000000000000000600052604160045260246000fd5b610f0782610d66565b810181811067ffffffffffffffff82111715610f2657610f25610ecf565b5b80604052505050565b6000610f39610c9a565b9050610f458282610efe565b919050565b600067ffffffffffffffff821115610f6557610f64610ecf565b5b610f6e82610d66565b9050602081019050919050565b82818337600083830152505050565b6000610f9d610f9884610f4a565b610f2f565b905082815260208101848484011115610fb957610fb8610eca565b5b610fc4848285610f7b565b509392505050565b600082601f830112610fe157610fe0610ec5565b5b8135610ff1848260208601610f8a565b91505092915050565b60008060006060848603121561101357611012610ca4565b5b600084013567ffffffffffffffff81111561103157611030610ca9565b5b61103d86828701610fcc565b935050602084013567ffffffffffffffff81111561105e5761105d610ca9565b5b61106a86828701610fcc565b925050604084013567ffffffffffffffff81111561108b5761108a610ca9565b5b61109786828701610fcc565b9150509250925092565b600080600080608085870312156110bb576110ba610ca4565b5b60006110c987828801610ccf565b945050602085013567ffffffffffffffff8111156110ea576110e9610ca9565b5b6110f687828801610fcc565b935050604085013567ffffffffffffffff81111561111757611116610ca9565b5b61112387828801610fcc565b925050606085013567ffffffffffffffff81111561114457611143610ca9565b5b61115087828801610fcc565b91505092959194509250565b600080fd5b600080fd5b60008083601f84011261117c5761117b610ec5565b5b8235905067ffffffffffffffff8111156111995761119861115c565b5b6020830191508360208202830111156111b5576111b4611161565b5b9250929050565b600080602083850312156111d3576111d2610ca4565b5b600083013567ffffffffffffffff8111156111f1576111f0610ca9565b5b6111fd85828601611166565b92509250509250929050565b600081519050919050565b600082825260208201905092915050565b6000819050602082019050919050565b600060c08301600083015161124d6000860182610d11565b50602083015184820360208601526112658282610d77565b9150506040830151848203604086015261127f8282610d77565b915050606083015184820360608601526112998282610d77565b91505060808301516112ae6080860182610de2565b5060a08301516112c160a0860182610dfd565b508091505092915050565b60006112d88383611235565b905092915050565b6000602082019050919050565b60006112f882611209565b6113028185611214565b93508360208202850161131485611225565b8060005b85811015611350578484038952815161133185826112cc565b945061133c836112e0565b925060208a01995050600181019050611318565b50829750879550505050505092915050565b6000602082019050818103600083015261137c81846112ed565b905092915050565b7f4e487b7100000000000000000000000000000000000000000000000000000000600052602260045260246000fd5b600060028204905060018216806113cb57607f821691505b6020821081036113de576113dd611384565b5b50919050565b6113ed81610cae565b82525050565b600060208201905061140860008301846113e4565b92915050565b61141781610dd0565b82525050565b6000604082019050611432600083018561140e565b61143f60208301846113e4565b9392505050565b7f4e487b7100000000000000000000000000000000000000000000000000000000600052601160045260246000fd5b600061148082610cae565b91507fffffffffffffffffffffffffffffffffffffffffffffffffffffffffffffffff82036114b2576114b1611446565b5b600182019050919050565b60008190508160005260206000209050919050565b60006020601f8301049050919050565b600082821b905092915050565b60006008830261151f7fffffffffffffffffffffffffffffffffffffffffffffffffffffffffffffffff826114e2565b61152986836114e2565b95508019841693508086168417925050509392505050565b6000819050919050565b600061156661156161155c84610cae565b611541565b610cae565b9050919050565b6000819050919050565b6115808361154b565b61159461158c8261156d565b8484546114ef565b825550505050565b600090565b6115a961159c565b6115b4818484611577565b505050565b5b818110156115d8576115cd6000826115a1565b6001810190506115ba565b5050565b601f82111561161d576115ee816114bd565b6115f7846114d2565b81016020851015611606578190505b61161a611612856114d2565b8301826115b9565b50505b505050565b600082821c905092915050565b600061164060001984600802611622565b1980831691505092915050565b6000611659838361162f565b9150826002028217905092915050565b61167282610d20565b67ffffffffffffffff81111561168b5761168a610ecf565b5b61169582546113b3565b6116a08282856115dc565b600060209050601f8311600181146116d357600084156116c1578287015190505b6116cb858261164d565b865550611733565b601f1984166116e1866114bd565b60005b82811015611709578489015182556001820191506020850194506020810190506116e4565b868310156117265784890151611722601f89168261162f565b8355505b6001600288020188555050505b505050505050565b600082825260208201905092915050565b600061175782610d20565b611761818561173b565b9350611771818560208601610d3c565b61177a81610d66565b840191505092915050565b600060a08201905061179a600083018861140e565b6117a760208301876113e4565b81810360408301526117b9818661174c565b905081810360608301526117cd818561174c565b905081810360808301526117e1818461174c565b90509695505050505050565b7f4e487b7100000000000000000000000000000000000000000000000000000000600052603260045260246000fdfea26469706673582212209ae7788fbb16f9c8c5a5534bf8edc8f88e1ce50284b899d65b3204a213b72b8864736f6c63430008130033",
	"linkReferences": {},
	"deployedLinkReferences": {}
}